:101AA20050524F4A4543542031004D494E48202D53
:101AB2002044554E470025332E31660054656D7023
:101AC2003A200043200048756D69646974793A20B0
:0F1AD2000025336400252E31662C0025640000AA
:1000030002280000022A0000042400000000022C41
:06001300000002220000C3
:10186000121C1E758951121A11E4FDFC7F03FE1231
:101870001B457BFF7A1A79A2121B947D017C007FA5
:10188000027E00121B457BFF7A1A79AC121B947FF3
:10189000D07E07121BFD121C4AC2A0E4FDFCFFFE15
:1018A000121B45121C307528008F29AE281214EE29
:1018B0008F278E268D258C24754BFF754C1A754D00
:1018C000B88F518E508D4F8C4E7B007A00792E123E
:1018D00010DB7BFF7A1A79BE121B947B007A0079A9
:1018E0002E121B94E4FFFE7D207C41AB27AA26A983
:1018F00025A824120CA2400C7FDF121C4F7F43123C
:101900001C4F8017E4FDFC7F09FE121B457FDF1290
:101910001C4F7BFF7A1A79C5121B94D2A07D017CE3
:1019200000E4FFFE121B45121BDBEF2488F52BEEB3
:1019300034FAF52AAF2BFE1200268E2C8F2D7BFF5A
:101940007A1A79C8121B94754BFF754C1A754DD3D2
:10195000852C4E852D4F7B007A00792E1210DB7B73
:10196000007A00792E121B947F25121C4FE5234527
:10197000226008E4F522F523121A607F327E0012FD
:051980001BFD02189997
:101C1E0075985275C83075CADC75CBFFD2CA75A8D7
:021C2E00902202
:03002300021BB904
:071BB900C0E0C0D030981617
:101BC00085994775A800E547B4240675220075235A
:061BD00001C29875A89007
:051BD600D0D0D0E03288
:101A6000E4FFFE754BFF754C1A754DD785275185E0
:101A7000265085254F85244EFB7A0079331210DBE2
:101A800074332FF9E4FAFB754BFF754C1A754DDD75
:101A9000852C4E852D4F1210DB7B007A00793302A6
:021AA00010E153
:0A1C400053800FEFC454F0428022DD
:09001A0053800FEF54F0428022E4
:101AE1008F4CC281C28012001AC2827F017E001215
:101AF1001BFDD2827F027E00121BFDAF4C121C40E7
:101B0100C2827F017E00121BFDD2827F027E000213
:021B11001BFDBA
:101B13008F4BC281D28012001AC2827F017E0012D3
:101B23001BFDD2827F027E00121BFDAF4B121C40B5
:101B3300C2827F017E00121BFDD2827F027E0002E1
:021B43001BFD88
:101A11007F327E00121BFD7F02121AE17F0A7E00D7
:101A2100121BFD7F28121AE17F0A7E00121BFD7F27
:101A31000C121AE17F0A7E00121BFD7F06121AE1C9
:101A41007F0A7E00121BFD7F01121AE17F0A7E00D0
:0F1A5100121BFD7F80121AE17F0A7E00021BFD2F
:051C4A007F01021AE118
:101B45008E488F498C4A8D4BE54B454A7007EF54BB
:101B55000F4480800EE54B6401454A700AE54954FF
:081B65000F44C0FF121AE12237
:031C4F00021B1362
:101B94008B488A49894AAB48AA49A94A120F7C60F2
:101BA40013054AE54A7002054914F9120F7CFF1225
:051BB4001C4F80E2223D
:101BFD00E4FDFCC3ED9FEC9E5016758CFC758A6A56
:101C0D00D28C308DFDC28DC28C0DBD00010C80E3D8
:011C1D0022A4
:0F1C3000C2B2C2B4D2B420B6FDC2B3AF90D2B329
:011C3F002282
:0414EE008E488F494C
:1014F200E4F54DF54CF54BF54AF54EF54FF550F543
:1015020051C3E549941DE5489400501CE54924F572
:10151200FDE54834FFFCE4120D207B437A5679EF57
:10152200783F120C05021738C3E549941EE548942A
:10153200004030E5499434E54894005026E54924BA
:10154200E2FDE54834FFFCE4120D207B9B7A7279C0
:101552000F7840120C05E4FBFA79207841120A0B4D
:10156200021738C3E5499434E54894004030E54910
:10157200944EE54894005026E54924CCFDE54834D4
:10158200FFFCE4120D207B7B7AF779257840120C60
:1015920005E4FBFA79A07841120A0B021738C3E579
:1015A20049944EE54894004030E5499468E54894F2
:1015B200005026E54924B2FDE54834FFFCE4120D53
:1015C200207BD97A9979247840120C05E4FBFA79C8
:1015D200F07841120A0B021738C3E5499468E548CE
:1015E20094004030E549947FE54894005026E5494F
:1015F2002498FDE54834FFFCE4120D207BB17A8A81
:1016020079157840120C05E4FBFA79207842120A27
:101612000B021738C3E549947FE54894004030E552
:1016220049949CE54894005026E5492481FDE5480B
:1016320034FFFCE4120D207BCA7A4F793A784012CB
:101642000C05E4FBFA79487842120A0B021738C3F8
:10165200E549949CE54894004030E54994B5E54855
:1016620094005026E5492464FDE54834FFFCE41269
:101672000D207B4A7A0C79207840120C05E4FBFAA3
:1016820079707842120A0B021738C3E54994B5E51E
:10169200489400402FE54994D0E54894005025E550
:1016A20049244BFDE54834FFFCE4120D207BF77A18
:1016B2009279287840120C05E4FBFA798C78421270
:1016C2000A0B8072C3E54994D0E5489400402FE5A7
:1016D2004994E7E54894005025E5492430FDE54862
:1016E20034FFFCE4120D207BF77AE9791678401278
:1016F2000C05E4FBFA79A07842120A0B8038C3E5A4
:101702004994E7E54894004035E54994FFE548945B
:1017120000502BE5492419FDE54834FFFCE4120D85
:10172200207B8C7A4A79147840120C05E4FBFA7912
:10173200B47842120A0B8F4D8E4C8D4B8C4AE4FFCB
:10174200FE7D207C41AB4DAA4CA94BA84A120AFC53
:10175200120D598E508F51AC50AD51E4120D20E450
:10176200FBFA79207841120C058F4D8E4C8D4B8CF3
:101772004AAE50AF517C007D0A120FE68C4E8D4F5F
:10178200C3E54F9403E54E94005038AF4DAE4CADD7
:101792004BAC4AC004C005C006C007AC4EAD4FE416
:1017A200120D20E4FBFA79207841120C05A804A955
:1017B20005AA06AB07D007D006D005D004120A0747
:1017C20002184FC3E54F9403E54E9400404CD3E515
:1017D2004F9407E54E94005041AB4DAA4CA94BA83B
:1017E2004AC000C001C002C003AC4EAD4FE4120DAE
:1017F20020A804A905AA06AB07E4FFFE7DA07C4051
:10180200120A07E4FBFA79207841120C05D003D0C2
:1018120002D001D000120A0B8033AB4DAA4CA94B67
:10182200A84AC000C001C002C003C3740A954FFD9C
:10183200E4954EFCE4120D20E4FBFA792078411283
:101842000C05D003D002D001D000120A0B8F4D8EAE
:0D1852004C8D4B8C4AAF4DAE4CAD4BAC4AAB
:01185F002266
:101BDB00E4FEF58BF58DD28E7F64121BFDC28EAFAA
:101BEB008DEFFEAD8B7C00E42DFFEC3EFE7D0A02FB
:021BFB000FD405
:10002600E4FDFCD3EF9483EE941750057D6402093A
:10003600FFD3EF9494EE94175010C3EF9483EE948D
:100046001740077C007D640209FFD3EF94A5EE9468
:10005600175010C3EF9494EE941740077C007D630D
:100066000209FFD3EF94B6EE94175010C3EF94A590
:10007600EE941740077C007D620209FFD3EF94C718
:10008600EE94175010C3EF94B6EE941740077C0019
:100096007D610209FFD3EF94D8EE94175010C3EF99
:1000A60094C7EE941740077C007D600209FFD3EFEA
:1000B60094E9EE94175010C3EF94D8EE94174007C6
:1000C6007C007D5F0209FFD3EF94F9EE9417501080
:1000D600C3EF94E9EE941740077C007D5E0209FFAA
:1000E600D3EF940AEE94185010C3EF94F9EE9417D8
:1000F60040077C007D5D0209FFD3EF941AEE941849
:100106005010C3EF940AEE941840077C007D5C0201
:1001160009FFD3EF942AEE94185010C3EF941AEE09
:10012600941840077C007D5B0209FFD3EF943AEEFA
:1001360094185010C3EF942AEE941840077C007D63
:100146005A0209FFD3EF9449EE94185010C3EF9466
:100156003AEE941840077C007D590209FFD3EF94CC
:1001660059EE94185010C3EF9449EE941840077C4A
:10017600007D580209FFD3EF9468EE94185010C31F
:10018600EF9459EE941840077C007D570209FFD37F
:10019600EF9478EE94185010C3EF9468EE941840DC
:1001A600077C007D560209FFD3EF9487EE94185022
:1001B60010C3EF9478EE941840077C007D55020931
:1001C600FFD3EF9496EE94185010C3EF9487EE94F5
:1001D6001840077C007D540209FFD3EF94A5EE94E6
:1001E600185010C3EF9496EE941840077C007D5388
:1001F6000209FFD3EF94B3EE94185010C3EF94A501
:10020600EE941840077C007D520209FFD3EF94C29A
:10021600EE94185010C3EF94B3EE941840077C0088
:100226007D510209FFD3EF94D0EE94185010C3EF1E
:1002360094C2EE941840077C007D500209FFD3EF6C
:1002460094DFEE94185010C3EF94D0EE9418400744
:100256007C007D4F0209FFD3EF94EDEE9418501009
:10026600C3EF94DFEE941840077C007D4E0209FF31
:10027600D3EF94FBEE94185010C3EF94EDEE941860
:1002860040077C007D4D0209FFD3EF9409EE9419D7
:100296005010C3EF94FBEE941840077C007D4C028F
:1002A60009FFD3EF9417EE94195010C3EF9409EE9B
:1002B600941940077C007D4B0209FFD3EF9425EE8D
:1002C60094195010C3EF9417EE941940077C007DE3
:1002D6004A0209FFD3EF9432EE94195010C3EF94FB
:1002E60025EE941940077C007D490209FFD3EF945F
:1002F60040EE94195010C3EF9432EE941940077CE7
:10030600007D480209FFD3EF944DEE94195010C3B7
:10031600EF9440EE941940077C007D470209FFD315
:10032600EF945BEE94195010C3EF944DEE94194080
:10033600077C007D460209FFD3EF9468EE941950BE
:1003460010C3EF945BEE941940077C007D450209CB
:10035600FFD3EF9475EE94195010C3EF9468EE94A2
:100366001940077C007D440209FFD3EF9482EE9486
:10037600195010C3EF9475EE941940077C007D4325
:100386000209FFD3EF948FEE94195010C3EF9482B5
:10039600EE941940077C007D420209FFD3EF949C3E
:1003A600EE94195010C3EF948FEE941940077C0019
:1003B6007D410209FFD3EF94A8EE94195010C3EFC4
:1003C600949CEE941940077C007D400209FFD3EF10
:1003D60094B5EE94195010C3EF94A8EE9419400703
:1003E6007C007D3F0209FFD3EF94C2EE94195010B2
:1003F600C3EF94B5EE941940077C007D3E0209FFD9
:10040600D3EF94CEEE94195010C3EF94C2EE941924
:1004160040077C007D3D0209FFD3EF94DBEE941983
:100426005010C3EF94CEEE941940077C007D3C0239
:1004360009FFD3EF94E7EE94195010C3EF94DBEE67
:10044600941940077C007D3B0209FFD3EF94F3EE3D
:1004560094195010C3EF94E7EE941940077C007D81
:100466003A0209FFD3EF9400EE941A5010C3EF94AA
:10047600F3EE941940077C007D390209FFD3EF940F
:100486000CEE941A500DC3EE941A40077C007D388A
:100496000209FFD3EF9418EE941A5010C3EF940C90
:1004A600EE941A40077C007D370209FFD3EF9424AF
:1004B600EE941A5010C3EF9418EE941A40077C007D
:1004C6007D360209FFD3EF9430EE941A5010C3EF35
:1004D6009424EE941A40077C007D350209FFD3EF81
:1004E600943CEE941A5010C3EF9430EE941A4007E1
:1004F6007C007D340209FFD3EF9448EE941A501025
:10050600C3EF943CEE941A40077C007D330209FF4A
:10051600D3EF9454EE941A5010C3EF9448EE941A05
:1005260040077C007D320209FFD3EF9460EE941AF7
:100536005010C3EF9454EE941A40077C007D3102AC
:1005460009FFD3EF946CEE941A5010C3EF9460EE4B
:10055600941A40077C007D300209FFD3EF9478EEB1
:10056600941A5010C3EF946CEE941A40077C007DE9
:100576002F0209FFD3EF9484EE941A5010C3EF9420
:1005860078EE941A40077C007D2E0209FFD3EF9483
:1005960090EE941A5010C3EF9484EE941A40077CA0
:1005A600007D2D0209FFD3EF949CEE941A5010C3E0
:1005B600EF9490EE941A40077C007D2C0209FFD33D
:1005C600EF94A8EE941A5010C3EF949CEE941A4040
:1005D600077C007D2B0209FFD3EF94B4EE941A50EA
:1005E60010C3EF94A8EE941A40077C007D2A0209F6
:1005F600FFD3EF94C0EE941A5010C3EF94B4EE9468
:100606001A40077C007D290209FFD3EF94CCEE94B3
:100616001A5010C3EF94C0EE941A40077C007D2850
:100626000209FFD3EF94D8EE941A5010C3EF94CC7E
:10063600EE941A40077C007D270209FFD3EF94E46D
:10064600EE941A5010C3EF94D8EE941A40077C002B
:100656007D260209FFD3EF94F0EE941A5010C3EFF3
:1006660094E4EE941A40077C007D250209FFD3EF3F
:1006760094FCEE941A5010C3EF94F0EE941A4007CF
:100686007C007D240209FFD3EF9408EE941B5010E2
:10069600C3EF94FCEE941A40077C007D230209FF09
:1006A600D3EF9414EE941B5010C3EF9408EE941BF2
:1006B60040077C007D220209FFD3EF9421EE941BB4
:1006C6005010C3EF9414EE941B40077C007D21026A
:1006D60009FFD3EF942DEE941B5010C3EF9421EE37
:1006E600941B40077C007D200209FFD3EF9439EE6E
:1006F600941B5010C3EF942DEE941B40077C007D95
:100706001F0209FFD3EF9446EE941B5010C3EF94DB
:1007160039EE941B40077C007D1E0209FFD3EF943F
:1007260053EE941B5010C3EF9446EE941B40077C87
:10073600007D1D0209FFD3EF945FEE941B5010C39A
:10074600EF9453EE941B40077C007D1C0209FFD3F7
:10075600EF946CEE941B5010C3EF945FEE941B4025
:10076600077C007D1B0209FFD3EF9479EE941B50A2
:1007760010C3EF946CEE941B40077C007D1A0209AF
:10078600FFD3EF9486EE941B5010C3EF9479EE944A
:100796001B40077C007D190209FFD3EF9493EE946A
:1007A6001B5010C3EF9486EE941B40077C007D1807
:1007B6000209FFD3EF94A0EE941B5010C3EF94935D
:1007C600EE941B40077C007D170209FFD3EF94AE21
:1007D600EE941B5010C3EF94A0EE941B40077C00D0
:1007E6007D160209FFD3EF94BBEE941B5010C3EFA6
:1007F60094AEEE941B40077C007D150209FFD3EFF3
:1008060094C9EE941B5010C3EF94BBEE941B4007A3
:100816007C007D140209FFD3EF94D7EE941B501091
:10082600C3EF94C9EE941B40077C007D130209FFB9
:10083600D3EF94E4EE941B5010C3EF94D7EE941BC1
:1008460040077C007D120209FFD3EF94F3EE941B60
:100856005010C3EF94E4EE941B40077C007D110218
:1008660009FFD3EF9401EE941C5010C3EF94F3EEFE
:10087600941B40077C007D100209FFD3EF940FEE16
:10088600941C5010C3EF9401EE941C40077C007D2D
:100896000F0209FFD3EF941BEE941C5010C3EF9484
:1008A6000FEE941C40077C007D0E0209FFD3EF94E7
:1008B6002DEE941C5010C3EF941BEE941C40077C45
:1008C600007D0D0209FFD3EF943CEE941C5010C33B
:1008D600EF942DEE941C40077C007D0C0209FFD39B
:1008E600EF944BEE941C5010C3EF943CEE941C40D6
:1008F600077C007D0B0209FFD3EF945BEE941C503E
:1009060010C3EF944BEE941C40077C007D0A02094D
:10091600FFD3EF946AEE941C5010C3EF945BEE94F1
:100926001C40077C007D090209FFD3EF947AEE9400
:100936001C5010C3EF946AEE941C40077C007D089F
:100946000209FFD3EF948BEE941C5010C3EF947AF8
:10095600EE941C40077C007D070209FFD3EF949BB1
:10096600EE941C5010C3EF948BEE941C40077C0051
:100976007D060209FFD3EF94ACEE941C500FC3EF33
:10098600949BEE941C40067C007D05806CD3EF940E
:10099600BDEE941C500FC3EF94ACEE941C40067C45
:1009A600007D048054D3EF94CEEE941C500FC3EF19
:1009B60094BDEE941C40067C007D03803CD3EF94EE
:1009C600E0EE941C500FC3EF94CEEE941C40067CD0
:1009D600007D028024D3EF94F2EE941C500FC3EFF7
:1009E60094E0EE941C40067C007D01800CC3EF94DD
:0D09F600F2EE941C4003E4FCFDAE04AF05DE
:010A030022D0
:100A0400020DC5E86480F8E933E83360110460F04E
:100A1400ED33EC337009E8FCE9FDEAFEEBFF220458
:100A240060DED3EB9FEA9EE99DE8C2E78CF0C2F753
:100A340095F0400CE8CCF8E9CDF9EACEFAEBCFFB1F
:100A4400120D9085D0F05804700320D5B3E80470DB
:100A5400075002B2D5020DCF92D5EC0460F7E4CC76
:100A6400C0E0C398F8603B94186008400DD0E0FBE8
:100A7400020DA7E4FBFAC9FC8028E830E406E4C9C7
:100A8400FBE4CAFCE830E305E4C9CACBFCE854073C
:100A94006010F8C3E913F9EA13FAEB13FBEC13FC47
:100AA400D8F130F52FC3E49CFCEF9BFFEE9AFEEDEA
:100AB40099FDD0E0FBEF4E4D4C701222DB03020D8A
:100AC400CCEC2CFCEF33FFEE33FEED33FDED30E7E1
:100AD400EB020DA7EF2BFFEE3AFEED39FDD0E0FB64
:100AE40050130BBB0003020DCFED13FDEE13FEEF0D
:080AF40013FFEC13FC020DA737
:100AFC00EC4D6011E8497017ED33EC3304600DE4F4
:100B0C00FCFFFEFD22E933E8330470F8020DC51238
:100B1C000D9058046009E4CC248150062850090239
:100B2C000DCF284003020DCCC0E0EB4A7044B980D5
:100B3C0006D0E0FB020DBBEF4E701CBD8008EBFF36
:100B4C00EAFEE9FD80EBE98DF0A4FEE5F0020BE591
:100B5C00E9CDF9EAFEEBFFEF89F0A4FCE5F0CE89D4
:100B6C00F0A42EFFE435F0CD89F0A42DFEE435F091
:100B7C008067EF4E7005BD80D780C3EF8BF0A4ACBF
:100B8C00F0EE8BF0A42CFCE435F0F8EF8AF0A42CFA
:100B9C00E5F038FCE433CB8DF0A42CFCE5F03BF80D
:100BAC00EE8AF0A42CFCE5F038F8E433CF89F0A4FD
:100BBC002CFCE5F038CF3400CE89F0A42FFFE5F003
:100BCC003EFEE433C98DF0A42EFEE5F039CD8AF05B
:100BDC00A42FFFE5F03EFEE43DFD33D0E0FB5007D3
:100BEC000BBB000F020DCFEC2CFCEF33FFEE33FEF2
:060BFC00ED33FD020DA720
:100C0200020DCFEC5D046005E859047003020DC5C6
:100C1200120D90580460F6EC4860F2EC7004FDFE90
:100C2200FF22C860DB2481C85009C39860025006C5
:100C3200020DCC9850CAF582E9294B4A7005AB8265
:100C4200020DBB75F0007C1A7880C3EF9BEE9AED23
:100C520099400DC3EF9BFFEE9AFEED99FDE842F03D
:100C6200DC23ACF0D0E0FFD0E0FED0E0FDAB822090
:100C7200E7101BEB60BAEC2CFCEF33FFEE33FEED1A
:100C820033FD020DA7E803F830E705C0F075F00068
:100C9200EF2FFFEE33FEED33FD40B830E7C280AAFE
:100CA20074F8CC6480CCC86480C8F58204604FC3F9
:100CB200EB9FF5F0EA9E42F0E99D42F0E89C45F098
:100CC200603C501DE5825FFFE582D313CB5BCBF422
:100CD2002B5582FB50280ABA002409B9002008804B
:100CE2001DE5825BFBE582D313CF5FCFF4C3132FE5
:100CF2005582FF50090EBE00050DBD00010CC3EB6D
:100D02009FF5F0EA9E42F0E99D42F0E89C45F060D2
:090D120007CC4820E701B3EC22F4
:100D1B0075F020800E75F010800575F0087D007E53
:100D2B00007F003392D530D50312103BEC334010CB
:100D3B00EF33FFEE33FEED33FDEC33FCD5F0ED225C
:0E0D4B00E5F0247EA2D513CC92E7CDCEFF2298
:100D5900EDD2E7CD33EC3392D524814006E4FFFE92
:100D6900FDFC22FCE4CFCECDCC24E0501174FF80F1
:100D7900EDC3CC13CCCD13CDCE13CECF13CF04708E
:070D8900F030D5DE02103B43
:10107F00E55F244BF8E6055F227848300702784B8E
:10108F00E475F001121049020F7C2000EB7F2ED285
:10109F00008018EF540F2490D43440D4FF30040B49
:1010AF00EF24BFB41A0050032461FFE560600215FE
:1010BF00600563E5637002056230070D7848E475DB
:1010CF00F001121049EF020FC2021B6D7403D20719
:1010DF008003E4C207F55F8B488A49894AE4F560CB
:1010EF00F562F563E56060077F201210BA80F57531
:1010FF0061FFC201C200C202C203C205C206C2081A
:10110F00121088FF700D3007057F001210CBAF63F0
:10111F00AE6222B4255FC2D5C204121088FF24D05C
:10112F00B40A00501A75F00A786030D50508B6FF7A
:10113F000106C6A426F620D5047002D20380D92456
:10114F00CFB41A00EF5004C2E5D2040213B8D20193
:10115F0080C6D20080C0D20280BCD2D580BAD20560
:10116F0080B47F201210BA2002077401B5600040CE
:10117F00F112107FFF1210BA0210F3D208D20680BC
:10118F009512107FFB12107FFA12107FF94A4B70E5
:10119F000679AF7A147BFF20022EE560602A7E006D
:1011AF008E82758300120F9560060EEE656170F0EA
:1011BF00C2D5EBC0E0EAC0E0E9C0E0EE121418D0EF
:1011CF00E0F9D0E0FAD0E0FB120F7CFF60AAEBC091
:1011DF00E0EAC0E0E9C0E01210BAD0E02401F9D093
:1011EF00E03400FAD0E0FBE5610460DCD561D98022
:1011FF0087D20280A21213FB60F7E561700104121F
:10120F000DDAA961600DE561600914F5611214A290
:10121F00EF60F3EA30E702F404C3995077EAF4255C
:10122F00610430E701E404F561800D1213FB60C126
:10123F00EA05612561120DDAEA785EF630E701E41E
:10124F00256104D5610420050114121418E4C0E0CF
:10125F001214A2785EE6601320E70714F61210A2AC
:10126F00802204F6D0E014C0E07F001210A2E561E6
:10127F0060071210991561800B300503121099D079
:10128F00E00210F3D0E00480C51213FB60A0E5610B
:10129F0004120DDA785EEAF6E561200502600104BA
:0512AF002404121418D4
:1012B40074FF04C0E01214A21210A2E5612005021A
:1012C4006003121099D0E0B561E87F451210AC7844
:1012D4005EE67F2B30E7047F2DF404C0E01210BAE1
:1012E400D0E075F00A84C0F01210A3D0E01210A36D
:1012F4000210F3791080027908C206C2088008D26D
:10130400D5790A8004790AC2D5E561047002F561D1
:10131400E4FAFDFEFF12107FFC7B0820011312107B
:101324007FFD7B1030000A12107FFE12107FFF7BBE
:1013340020EC3382D592D55013C3E43000069FFFCE
:10134400E49EFEE42001039DFDE49CFCE4CBF8C292
:1013540001EC700CCFCECDCCE824F8F870F38017F4
:10136400C3EF33FFEE33FEED33FDEC33FCEB33FB25
:10137400994002FB0FD8E9EB300105F8D0E0C448EE
:10138400B201C0E00AEC4D4E4F78207B0070C2EAF7
:10139400B5610040BCC0E012141AD0F0D0E02001C6
:1013A40004C4C0E0C4B201C0F01210A3D0F0D5F060
:1013B400EB0210F312105911905312F75811614CAB
:1013C400115D4212FB4F1303441303491176431377
:1013D4000955123A4612984512044714CF50116524
:1013E4002D11692E118C2B116D23118A2014B82A0A
:1013F40011254800001184E561B4FF0375610612EC
:10140400107FFC12107FFD12107FFE12107FFF78F8
:1014140057020E09790AA2D5200314300509B91020
:10142400020404B9080104A2D520060250010420D4
:1014340002689202B560005034C0E07F2030031986
:101444007F30A20272067205500F121471C202C2DA
:1014540006C205C2087F30800F300503E9C0E012E0
:1014640010BA300503D0E0F9D0E0B560CC300517F0
:101474007F30B9100C1210BA7F583004077F78807F
:1014840003B908031210BA3002057F2D0210BA7F87
:10149400202008F87F2B2006F322920280CF7F00C1
:1014A400B4070050052457F8E6FF22286E756C6CCB
:1014B4002900D20112107F3001F8C201786030D5C2
:1014C4000108F60211252D5043495812107F2403B8
:1014D400B405004001E49014CA931210AB743A129C
:0A14E40010ABD2037560040212F78A
:100D9000E9D2E7C933E833F892D5EDD2E7CD33ECA9
:070DA00033FC5002B2D52222
:100DA700EC30E7100FBF000C0EBE00080DBD0004AD
:100DB7000BEB6014A2D5EB13FCED92E7FD2274FF59
:100DC700FCFDFEFF22E480F8A2D574FF13FC7D80B2
:030DD700E480EFC6
:100DDA00F920E72824F950037907E4F42402FB18E0
:100DEA00DBFDE624FB5014E9600DE4F618E604F690
:0F0DFA00B40A08E4F6D9F57401F60A22C2D5222C
:100E0900ED33EC3392D5FA602AB4FF33EDC2E77BB8
:100E1900FF60067A0E792EE4227A0E793720D504FE
:100E29007A0E7932224E614E002B494E46002D49E9
:100E39004E4600E47A08F608DAFC7B00740722E8DB
:100E4900C0E0ECC0E0EDC0E0EEC0E0EFC0E0EA7564
:100E5900F010A4CAABF075F04DA42BFBE435F0FCFF
:100E6900EA2410FAEB34C5FBEC34D9FCEDC2E7FFF8
:100E790075F056A4F42411C5F0F434C58FF0A42AF2
:100E8900E5F03BE43CF620E714120F3CD0E0FFD03C
:100E9900E0FED0E0FDD0E0FC120C058014F4041251
:100EA9000F3CD0E0FFD0E0FED0E0FDD0E0FC120A1C
:100EB900FCD0E0F8E6FAEDD2E7CD33EC332482FB3F
:100EC900E4C3CF33CFCE33CECD33CD33DBF37B0782
:100ED90075F00A846004F6081B0AE5F0F6088FF03D
:100EE900740AA4FFACF08EF0740AA42CFEACF05086
:100EF900010C8DF0740AA42CFDE435F0F608DBDE54
:030F090074072248
:100F0C003F8000004120000042C80000447A0000ED
:100F1C00461C400047C35000497424004B1896806F
:100F2C004CBEBC205A0E1BCA6753C21C749DC5AE66
:100F3C00FB60065407601C2323120F6AEB543860C5
:100F4C0009120F56120F65120AFCECF8EDF9EEFAC5
:100F5C00EFCB22EB120F6580F1543803241C900F59
:100F6C000CFE93FC0EEE93FD0EEE930ECE93FF2231
:030000000219855D
:0C198500787FE4F6D8FD7581630219CC70
:100F7C00BB010689828A83E0225002E722BBFE0273
:090F8C00E32289828A83E49322A6
:100F9500BB010CE58229F582E5833AF583E0225011
:100FA50006E92582F8E622BBFE06E92582F8E2225B
:0D0FB500E58229F582E5833AF583E4932275
:100FC200BB010689828A83F0225002F722BBFE010E
:020FD200F32208
:100FD400EF8DF0A4A8F0CF8CF0A428CE8DF0A42E31
:020FE400FE22EB
:100FE600BC000BBE0029EF8DF084FFADF022E4CCEF
:100FF600F875F008EF2FFFEE33FEEC33FCEE9DECB8
:10100600984005FCEE9DFE0FD5F0E9E4CEFD22EDFD
:10101600F8F5F0EE8420D21CFEADF075F008EF2F47
:10102600FFED33FD4007985006D5F0F222C398FD38
:051036000FD5F0EA22D5
:0E103B00C3E49FFFE49EFEE49DFDE49CFC22C6
:10104900FAE6FB0808E6F925F0F618E6CA3AF622A8
:10105900D083D082F8E4937012740193700DA3A326
:1010690093F8740193F5828883E47374029368603A
:06107900EFA3A3A380DF3A
:101B6D00EFB40A07740D121B78740A309811A899F6
:101B7D00B8130CC2983098FDA899C298B811F630D8
:071B8D0099FDC299F59922B0
:10199100021860E493A3F8E493A34003F68001F2F4
:1019A10008DFF48029E493A3F85407240CC8C33357
:1019B100C4540F4420C8834004F456800146F6DF26
:1019C100E4800B0102040810204080900003E47EB3
:1019D100019360BCA3FF543F30E509541FFEE4931B
:1019E100A360010ECF54C025E060A840B8E493A3E2
:1019F100FAE493A3F8E493A3C8C582C8CAC583CA0D
:101A0100F0A3C8C582C8CAC583CADFE9DEE780BEC4
:0100190000E6
:00000001FF
